{"abi":[{"type":"constructor","inputs":[{"name":"_erc20Template","type":"address","internalType":"address"},{"name":"_admin","type":"address","internalType":"address"},{"name":"_upkeeper","type":"address","internalType":"address"}],"stateMutability":"nonpayable"},{"type":"function","name":"ADMIN_ROLE","inputs":[],"outputs":[{"name":"","type":"bytes32","internalType":"bytes32"}],"stateMutability":"view"},{"type":"function","name":"DEFAULT_ADMIN_ROLE","inputs":[],"outputs":[{"name":"","type":"bytes32","internalType":"bytes32"}],"stateMutability":"view"},{"type":"function","name":"UPKEEPER_ROLE","inputs":[],"outputs":[{"name":"","type":"bytes32","internalType":"bytes32"}],"stateMutability":"view"},{"type":"function","name":"buyShares","inputs":[{"name":"character","type":"uint256","internalType":"uint256"},{"name":"amount","type":"uint256","internalType":"uint256"}],"outputs":[],"stateMutability":"payable"},{"type":"function","name":"characterSharesBalance","inputs":[{"name":"characterId","type":"uint256","internalType":"uint256"},{"name":"owner","type":"address","internalType":"address"}],"outputs":[{"name":"","type":"uint256","internalType":"uint256"}],"stateMutability":"view"},{"type":"function","name":"characterTokens","inputs":[{"name":"","type":"uint256","internalType":"uint256"}],"outputs":[{"name":"","type":"address","internalType":"address"}],"stateMutability":"view"},{"type":"function","name":"characters","inputs":[{"name":"","type":"uint256","internalType":"uint256"}],"outputs":[{"name":"value","type":"uint256","internalType":"uint256"},{"name":"supply","type":"uint256","internalType":"uint256"},{"name":"a","type":"uint256","internalType":"uint256"},{"name":"b","type":"uint256","internalType":"uint256"},{"name":"c","type":"uint256","internalType":"uint256"}],"stateMutability":"view"},{"type":"function","name":"createToken","inputs":[{"name":"characterId","type":"uint256","internalType":"uint256"},{"name":"name","type":"string","internalType":"string"},{"name":"symbol","type":"string","internalType":"string"},{"name":"a","type":"uint256","internalType":"uint256"},{"name":"b","type":"uint256","internalType":"uint256"},{"name":"c","type":"uint256","internalType":"uint256"}],"outputs":[],"stateMutability":"nonpayable"},{"type":"function","name":"depositMarketCap","inputs":[{"name":"character","type":"uint256","internalType":"uint256"}],"outputs":[],"stateMutability":"payable"},{"type":"function","name":"endMatch","inputs":[{"name":"winner","type":"uint256","internalType":"uint256"}],"outputs":[],"stateMutability":"nonpayable"},{"type":"function","name":"erc20Template","inputs":[],"outputs":[{"name":"","type":"address","internalType":"address"}],"stateMutability":"view"},{"type":"function","name":"getBuyPrice","inputs":[{"name":"character","type":"uint256","internalType":"uint256"},{"name":"amount","type":"uint256","internalType":"uint256"}],"outputs":[{"name":"","type":"uint256","internalType":"uint256"}],"stateMutability":"view"},{"type":"function","name":"getBuyPriceAfterFee","inputs":[{"name":"character","type":"uint256","internalType":"uint256"},{"name":"amount","type":"uint256","internalType":"uint256"}],"outputs":[{"name":"","type":"uint256","internalType":"uint256"}],"stateMutability":"view"},{"type":"function","name":"getCurve","inputs":[{"name":"x","type":"uint256","internalType":"uint256"},{"name":"deltaX","type":"uint256","internalType":"uint256"},{"name":"a","type":"uint256","internalType":"uint256"},{"name":"b","type":"uint256","internalType":"uint256"},{"name":"c","type":"uint256","internalType":"uint256"}],"outputs":[{"name":"cost","type":"uint256","internalType":"uint256"}],"stateMutability":"pure"},{"type":"function","name":"getPrice","inputs":[{"name":"supply","type":"uint256","internalType":"uint256"},{"name":"amount","type":"uint256","internalType":"uint256"},{"name":"scalingFactor","type":"uint256","internalType":"uint256"},{"name":"a","type":"uint256","internalType":"uint256"},{"name":"b","type":"uint256","internalType":"uint256"},{"name":"c","type":"uint256","internalType":"uint256"}],"outputs":[{"name":"","type":"uint256","internalType":"uint256"}],"stateMutability":"pure"},{"type":"function","name":"getRoleAdmin","inputs":[{"name":"role","type":"bytes32","internalType":"bytes32"}],"outputs":[{"name":"","type":"bytes32","internalType":"bytes32"}],"stateMutability":"view"},{"type":"function","name":"getScalingFactor","inputs":[{"name":"character","type":"uint256","internalType":"uint256"}],"outputs":[{"name":"","type":"uint256","internalType":"uint256"}],"stateMutability":"view"},{"type":"function","name":"getSellPrice","inputs":[{"name":"character","type":"uint256","internalType":"uint256"},{"name":"amount","type":"uint256","internalType":"uint256"}],"outputs":[{"name":"","type":"uint256","internalType":"uint256"}],"stateMutability":"view"},{"type":"function","name":"getSellPriceAfterFee","inputs":[{"name":"character","type":"uint256","internalType":"uint256"},{"name":"amount","type":"uint256","internalType":"uint256"}],"outputs":[{"name":"","type":"uint256","internalType":"uint256"}],"stateMutability":"view"},{"type":"function","name":"grantRole","inputs":[{"name":"role","type":"bytes32","internalType":"bytes32"},{"name":"account","type":"address","internalType":"address"}],"outputs":[],"stateMutability":"nonpayable"},{"type":"function","name":"hasRole","inputs":[{"name":"role","type":"bytes32","internalType":"bytes32"},{"name":"account","type":"address","internalType":"address"}],"outputs":[{"name":"","type":"bool","internalType":"bool"}],"stateMutability":"view"},{"type":"function","name":"matchCount","inputs":[],"outputs":[{"name":"","type":"uint256","internalType":"uint256"}],"stateMutability":"view"},{"type":"function","name":"pause","inputs":[],"outputs":[],"stateMutability":"nonpayable"},{"type":"function","name":"paused","inputs":[],"outputs":[{"name":"","type":"bool","internalType":"bool"}],"stateMutability":"view"},{"type":"function","name":"protocolFeeDestination","inputs":[],"outputs":[{"name":"","type":"address","internalType":"address"}],"stateMutability":"view"},{"type":"function","name":"protocolFeePercent","inputs":[],"outputs":[{"name":"","type":"uint256","internalType":"uint256"}],"stateMutability":"view"},{"type":"function","name":"removeRole","inputs":[{"name":"role","type":"bytes32","internalType":"bytes32"},{"name":"account","type":"address","internalType":"address"}],"outputs":[],"stateMutability":"nonpayable"},{"type":"function","name":"renounceRole","inputs":[{"name":"role","type":"bytes32","internalType":"bytes32"},{"name":"account","type":"address","internalType":"address"}],"outputs":[],"stateMutability":"nonpayable"},{"type":"function","name":"revokeRole","inputs":[{"name":"role","type":"bytes32","internalType":"bytes32"},{"name":"account","type":"address","internalType":"address"}],"outputs":[],"stateMutability":"nonpayable"},{"type":"function","name":"rewardPercent","inputs":[],"outputs":[{"name":"","type":"uint256","internalType":"uint256"}],"stateMutability":"view"},{"type":"function","name":"sellShares","inputs":[{"name":"character","type":"uint256","internalType":"uint256"},{"name":"amount","type":"uint256","internalType":"uint256"}],"outputs":[],"stateMutability":"nonpayable"},{"type":"function","name":"setProtocolFeeDestination","inputs":[{"name":"_protocolFeeDestination","type":"address","internalType":"address"}],"outputs":[],"stateMutability":"nonpayable"},{"type":"function","name":"setProtocolFeePercent","inputs":[{"name":"_protocolFeePercent","type":"uint256","internalType":"uint256"}],"outputs":[],"stateMutability":"nonpayable"},{"type":"function","name":"setRewardPercent","inputs":[{"name":"_rewardPercent","type":"uint256","internalType":"uint256"}],"outputs":[],"stateMutability":"nonpayable"},{"type":"function","name":"setRole","inputs":[{"name":"role","type":"bytes32","internalType":"bytes32"},{"name":"account","type":"address","internalType":"address"}],"outputs":[],"stateMutability":"nonpayable"},{"type":"function","name":"startMatch","inputs":[{"name":"player1","type":"uint256","internalType":"uint256"},{"name":"player2","type":"uint256","internalType":"uint256"}],"outputs":[],"stateMutability":"nonpayable"},{"type":"function","name":"supportsInterface","inputs":[{"name":"interfaceId","type":"bytes4","internalType":"bytes4"}],"outputs":[{"name":"","type":"bool","internalType":"bool"}],"stateMutability":"view"},{"type":"function","name":"totalValueDeposited","inputs":[],"outputs":[{"name":"","type":"uint256","internalType":"uint256"}],"stateMutability":"view"},{"type":"function","name":"transferMarketCap","inputs":[{"name":"from","type":"uint256","internalType":"uint256"},{"name":"to","type":"uint256","internalType":"uint256"},{"name":"amount","type":"uint256","internalType":"uint256"}],"outputs":[],"stateMutability":"nonpayable"},{"type":"function","name":"unpause","inputs":[],"outputs":[],"stateMutability":"nonpayable"},{"type":"function","name":"worldState","inputs":[],"outputs":[{"name":"status","type":"uint8","internalType":"enum World.Status"},{"name":"id","type":"uint256","internalType":"uint256"},{"name":"p1","type":"uint256","internalType":"uint256"},{"name":"p2","type":"uint256","internalType":"uint256"}],"stateMutability":"view"},{"type":"event","name":"BattleEnded","inputs":[{"name":"timestamp","type":"uint256","indexed":false,"internalType":"uint256"},{"name":"id","type":"uint256","indexed":false,"internalType":"uint256"},{"name":"p1","type":"uint256","indexed":false,"internalType":"uint256"},{"name":"p2","type":"uint256","indexed":false,"internalType":"uint256"},{"name":"winner","type":"uint256","indexed":false,"internalType":"uint256"},{"name":"loser","type":"uint256","indexed":false,"internalType":"uint256"},{"name":"reward","type":"uint256","indexed":false,"internalType":"uint256"},{"name":"winnerValue","type":"uint256","indexed":false,"internalType":"uint256"},{"name":"winnerSupply","type":"uint256","indexed":false,"internalType":"uint256"},{"name":"loserValue","type":"uint256","indexed":false,"internalType":"uint256"},{"name":"loserSupply","type":"uint256","indexed":false,"internalType":"uint256"}],"anonymous":false},{"type":"event","name":"BattleStarted","inputs":[{"name":"timestamp","type":"uint256","indexed":false,"internalType":"uint256"},{"name":"id","type":"uint256","indexed":false,"internalType":"uint256"},{"name":"p1","type":"uint256","indexed":false,"internalType":"uint256"},{"name":"p2","type":"uint256","indexed":false,"internalType":"uint256"}],"anonymous":false},{"type":"event","name":"CreateCharacter","inputs":[{"name":"timestamp","type":"uint256","indexed":false,"internalType":"uint256"},{"name":"characterId","type":"uint256","indexed":false,"internalType":"uint256"},{"name":"tokenAddress","type":"address","indexed":false,"internalType":"address"},{"name":"a","type":"uint256","indexed":false,"internalType":"uint256"},{"name":"b","type":"uint256","indexed":false,"internalType":"uint256"},{"name":"c","type":"uint256","indexed":false,"internalType":"uint256"}],"anonymous":false},{"type":"event","name":"Paused","inputs":[{"name":"account","type":"address","indexed":false,"internalType":"address"}],"anonymous":false},{"type":"event","name":"RoleAdminChanged","inputs":[{"name":"role","type":"bytes32","indexed":true,"internalType":"bytes32"},{"name":"previousAdminRole","type":"bytes32","indexed":true,"internalType":"bytes32"},{"name":"newAdminRole","type":"bytes32","indexed":true,"internalType":"bytes32"}],"anonymous":false},{"type":"event","name":"RoleGranted","inputs":[{"name":"role","type":"bytes32","indexed":true,"internalType":"bytes32"},{"name":"account","type":"address","indexed":true,"internalType":"address"},{"name":"sender","type":"address","indexed":true,"internalType":"address"}],"anonymous":false},{"type":"event","name":"RoleRevoked","inputs":[{"name":"role","type":"bytes32","indexed":true,"internalType":"bytes32"},{"name":"account","type":"address","indexed":true,"internalType":"address"},{"name":"sender","type":"address","indexed":true,"internalType":"address"}],"anonymous":false},{"type":"event","name":"Stake","inputs":[{"name":"timestamp","type":"uint256","indexed":false,"internalType":"uint256"},{"name":"staker","type":"address","indexed":false,"internalType":"address"},{"name":"character","type":"uint256","indexed":false,"internalType":"uint256"},{"name":"attribute","type":"uint256","indexed":false,"internalType":"uint256"},{"name":"shareAmount","type":"uint256","indexed":false,"internalType":"uint256"},{"name":"unlockTime","type":"uint256","indexed":false,"internalType":"uint256"}],"anonymous":false},{"type":"event","name":"Trade","inputs":[{"name":"timestamp","type":"uint256","indexed":false,"internalType":"uint256"},{"name":"trader","type":"address","indexed":false,"internalType":"address"},{"name":"character","type":"uint256","indexed":false,"internalType":"uint256"},{"name":"isBuy","type":"bool","indexed":false,"internalType":"bool"},{"name":"shareAmount","type":"uint256","indexed":false,"internalType":"uint256"},{"name":"ethAmount","type":"uint256","indexed":false,"internalType":"uint256"},{"name":"protocolEthAmount","type":"uint256","indexed":false,"internalType":"uint256"},{"name":"supply","type":"uint256","indexed":false,"internalType":"uint256"},{"name":"value","type":"uint256","indexed":false,"internalType":"uint256"}],"anonymous":false},{"type":"event","name":"Unpaused","inputs":[{"name":"account","type":"address","indexed":false,"internalType":"address"}],"anonymous":false},{"type":"event","name":"Unstake","inputs":[{"name":"timestamp","type":"uint256","indexed":false,"internalType":"uint256"},{"name":"staker","type":"address","indexed":false,"internalType":"address"},{"name":"character","type":"uint256","indexed":false,"internalType":"uint256"},{"name":"attribute","type":"uint256","indexed":false,"internalType":"uint256"},{"name":"shareAmount","type":"uint256","indexed":false,"internalType":"uint256"}],"anonymous":false},{"type":"error","name":"PRBMath_MulDiv18_Overflow","inputs":[{"name":"x","type":"uint256","internalType":"uint256"},{"name":"y","type":"uint256","internalType":"uint256"}]},{"type":"error","name":"PRBMath_MulDiv_Overflow","inputs":[{"name":"x","type":"uint256","internalType":"uint256"},{"name":"y","type":"uint256","internalType":"uint256"},{"name":"denominator","type":"uint256","internalType":"uint256"}]},{"type":"error","name":"PRBMath_UD60x18_Sqrt_Overflow","inputs":[{"name":"x","type":"uint256","internalType":"UD60x18"}]}],"bytecode":{"object":"0x60a034620001d857601f62002e3238819003918201601f191683019291906001600160401b03841183851017620001dd578160609284926040968752833981010312620001d8576200005181620001f3565b6020916200006e8462000066858401620001f3565b9201620001f3565b916000936001855560ff199182600154166001556103e860045566470de4df820000600a5567016345785d8a0000600b5560805281600554166005557fa49807205ce4d355092ef5a8a18f56e8913cf4a201fbe287825b095693c21775808652600282528686209060018060a01b0380951691828852835260ff888820541615620001a0575b5060018060a01b031960095416176009557f68e9e1a1a294fefbfbf8f57edd22025faa9a9f634abfb07c3da4e23117d53b619283865260028252868620941693848652815260ff86862054161562000166575b8551612c099081620002098239608051818181610c150152610e660152f35b82855260028152858520908486525260018585209182541617905560008051602062002e12833981519152339380a4388080808062000147565b80875260028352878720828852835287872060018582541617905581339160008051602062002e128339815191528980a438620000f4565b600080fd5b634e487b7160e01b600052604160045260246000fd5b51906001600160a01b0382168203620001d85756fe608060408181526004908136101561001657600080fd5b600092833560e01c90816301ffc9a714611aec57508063063a741f14611ab75780630eaa8532146118515780632279a9701461146a578063248a9ca31461143f5780632f2ff15d1461139157806332cfbd98146112b157806336568abe1461121f5780633f4ba83a146111615780634810bc59146111105780634a22b3f2146110dd5780634ce7957c146110b4578063594799c214610f905780635c975abb14610f6c5780635f8a7a4e14610e9557806361e8659914610e515780636716727814610b5b57806375b238fc14610b3257806379c4264b14610b145780638456cb5914610a9457806385ec65e514610a6457806386eb513314610a4557806391d14854146109ff578063930d2d17146109615780639477d85d1461094b578063989f039a146108fe578063a10786b014610887578063a217fddf1461086c578063a498342114610823578063bdfd55bf146107c8578063beebc5da14610487578063c157253d1461046b578063c1c5dd2714610422578063cd9c7121146103e7578063d0302051146103c8578063d547741f1461038e578063d6e6eb9f1461036f578063d820c67e14610330578063dff872031461026a578063e5789877146102405763f6ba0007146101e757600080fd5b3461023c578060031936011261023c576102399161023360ff610208611b56565b93600080516020612bb483398151915287526002602052808720336000526020526000205416612084565b35611fb1565b80f35b8280fd5b5082346102675760203660031901126102675750610260602092356125ed565b9051908152f35b80fd5b50903461023c578160031936011261023c573590610286611b56565b90600080516020612bb483398151915284526020600281528185203360005281526102b760ff836000205416612084565b838552600281528185206001600160a01b039093166000818152938252928290205460ff16156102e5578480f35b838552600281528185206000848152915220805460ff1916600117905533917f2f8788117e7eff1d82e926ec794901d17c78024a50270940304540a733656f0d8480a4388080808480f35b83823461036b578160031936011261036b57602090517f68e9e1a1a294fefbfbf8f57edd22025faa9a9f634abfb07c3da4e23117d53b618152f35b5080fd5b83823461036b578160031936011261036b57602090600a549051908152f35b503461023c578060031936011261023c5761023991356103c360016103b1611b56565b93838752600260205286200154611c53565b611fb1565b83823461036b578160031936011261036b57602090600b549051908152f35b83823461036b5760209061026061040661040036611b40565b9061273c565b670de0b6b3a764000061041b600a5483612027565b049061211f565b503461023c57602036600319011261023c5760ff61046491600080516020612bb483398151915285526002602052808520336000526020526000205416612084565b35600b5580f35b83823461036b5760209061026061048136611b40565b906126f4565b5061049136611b40565b60ff6005939293541660028110156107b55715801561079c575b6104b490612797565b6104bc6128cf565b6104c46120db565b8285526020926003845260018060a01b036104e581858920541615156127f6565b821561074257818752600385528084882054169161050384826126f4565b93670de0b6b3a7640000610519600a5487612027565b04936105258587612050565b34106106eb5790818a959493923b156106e75787516340c10f1960e01b815233818c01908152602081018490529091879183919082908490829060400103925af180156106dd5788928a979695949289926106b9575b508680808089819a96997f25d9a2ad0d37c8d512a28ff4d1d12a6638e76f6ec0bfb9fc38a36c99fd717cee61012061066b9f859d9c8c879e6106549c6106599f8a52600d85526001848b20016105d2828254612050565b9055828a52600d8552838a206105e9838254612050565b90556105f782600c54612050565b600c55828a52600d8552838a20926001840154935494805196428852339088015286015260016060860152608085015260a08401528660c084015260e0830152610100820152a1600954165af19861064d612853565b503461211f565b61211f565b335af191610665612853565b50612883565b1561067857836001815580f35b5162461bcd60e51b815291820152601f60248201527f556e61626c6520746f20726566756e6420657863657373207061796d656e7400604482015260649150fd5b909350869297506106ca9150611b9e565b6106d95787948688923861057b565b8380fd5b88513d88823e3d90fd5b8580fd5b865162461bcd60e51b8152808a01899052602b60248201527f496e73756666696369656e74207061796d656e7420726571756972656420746f60448201526a206275792073686172657360a81b6064820152608490fd5b835162461bcd60e51b8152808701869052602e60248201527f416d6f756e74206f662073686172657320746f20627579206d7573742062652060448201526d067726561746572207468616e20360941b6064820152608490fd5b5082600754141580156104ab57506008548314156104ab565b634e487b7160e01b865260218552602486fd5b5082903461036b578160031936011261036b5760ff60055416906006549060075491600854938251956002821015610810575060809650855260208501528301526060820152f35b634e487b7160e01b815260218852602490fd5b503461023c57602036600319011261023c5760ff61086591600080516020612bb483398151915285526002602052808520336000526020526000205416612084565b35600a5580f35b83823461036b578160031936011261036b5751908152602090f35b50903461023c57602036600319011261023c57356001600160a01b03811691908290036108f95760ff6108de91600080516020612bb483398151915285526002602052808520336000526020526000205416612084565b6bffffffffffffffffffffffff60a01b600954161760095580f35b600080fd5b5082346102675760c03660031901126102675750670de0b6b3a764000061094360209361093e6044359160a43590608435906064359060243590356122d7565b612027565b049051908152f35b83823461036b5760209061026061040036611b40565b5082903461036b578060031936011261036b5761097c611b56565b92803583526020809460038252602460018060a01b0391828688205416865195869485936370a0823160e01b855216908301525afa9283156109f457926109c5575b5051908152f35b9091508281813d83116109ed575b6109dd8183611bce565b810103126108f9575190836109be565b503d6109d3565b8251903d90823e3d90fd5b50903461023c578160031936011261023c5781602093610a1d611b56565b9235815260028552209060018060a01b0316600052825260ff81600020541690519015158152f35b83823461036b578160031936011261036b57602090600c549051908152f35b5082346102675760a0366003190112610267575061026060209260843590606435906044359060243590356122d7565b83823461036b578160031936011261036b5760207f62e78cea01bee320cd4e420270b5ea74000d11b0c9f74754ebdbfc544b05a25891600080516020612bb4833981519152845260028252808420336000528252610af860ff826000205416612084565b610b006120db565b600160ff198154161760015551338152a180f35b50903461023c578260031936011261023c5760209250549051908152f35b83823461036b578160031936011261036b5760209051600080516020612bb48339815191528152f35b503461023c576003199160c0368401126106d95780356024359367ffffffffffffffff94858111610e4d57610b939036908501611c0c565b94604435908111610e4d57610bab9036908501611c0c565b93606435926084359460a43596600080516020612bb48339815191528a5260209860028a52848b20336000528a52610be960ff866000205416612084565b838b5260038a52848b20546001600160a01b03908116610dfa576e5af43d82803e903d91602b57fd5bf37f00000000000000000000000000000000000000000000000000000000000000008d763d602d80600a3d3981f3363d3d373d3d3d363d7300000062ffffff8360881c1617905260781b178b52603760098df016958615610dbe57908b939291873b15610dba5786516303bf912560e11b815260608582015292859284928392610cb392610ca4906064860190611f8c565b91848303016024850152611f8c565b3060448301520381838a5af18015610db057610d87575b5091817f1c55dd236489bc4cb5961b1d4b3ba4eef224bada366d2b15c5d6b63f0d4fd5aa999795938260c09a9896945260038952838220856bffffffffffffffffffffffff60a01b82541617905587878a865194610d2786611bb2565b8086528782870191808352600d828901948d865260608a0196875260808a019788528a8352522095518655516001860155516002850155516003840155519101558151964288528701528501526060840152608083015260a0820152a180f35b91610d9a819a9896949299979593611b9e565b610dac57919395979092949638610cca565b8880fd5b85513d85823e3d90fd5b8480fd5b855162461bcd60e51b81528085018c90526016602482015275115490cc4c4d8dce8818dc99585d194819985a5b195960521b6044820152606490fd5b855162461bcd60e51b81528085018c9052602760248201527f546f6b656e20616c72656164792065786973747320666f72207468697320636860448201526630b930b1ba32b960c91b6064820152608490fd5b8680fd5b83823461036b578160031936011261036b57517f00000000000000000000000000000000000000000000000000000000000000006001600160a01b03168152602090f35b5090602036600319011261023c57803590600080516020612bb48339815191528452600260205282842033600052602052610ed660ff846000205416612084565b60ff60055416906002821015610f595750158015610f40575b610ef890612797565b808352600360205281832054610f18906001600160a01b031615156127f6565b8252600d6020528120610f2c348254612050565b9055610f3a34600c54612050565b600c5580f35b508060075414158015610eef5750600854811415610eef565b634e487b7160e01b855260219052602484fd5b83823461036b578160031936011261036b5760209060ff6001541690519015158152f35b5082903461036b57610fa136611b40565b917f68e9e1a1a294fefbfbf8f57edd22025faa9a9f634abfb07c3da4e23117d53b6184526020936002855281812033600052855260ff8260002054168015611083575b610fed90612925565b8554908251610ffb81611b6c565b60018152868101838152606085830192878452019280888552611070577f7550161bd2fc26d7f30d9b7370cea4e3f940b4c22624d4ec58b44462372ec4fe60808a8a8a8a8a8a8a8a600160ff1960055416176005555160065551600755516008558151944286528501528301526060820152a1005b634e487b7160e01b815260218a52602490fd5b50600080516020612bb4833981519152815260028552818120336000528552610fed60ff8360002054169050610fe4565b83823461036b578160031936011261036b5760095490516001600160a01b039091168152602090f35b50903461023c57602036600319011261023c5735825260036020908152918190205490516001600160a01b039091168152f35b503461023c57602036600319011261023c578060a09383358152600d602052208054926001820154926002830154916003840154930154938151958652602086015284015260608301526080820152f35b50903461023c578260031936011261023c57600080516020612bb483398151915283526002602052818320336000526020526111a360ff836000205416612084565b6001549060ff8216156111e5575060ff1916600155513381527f5db9ee0a495bf2e6ff9c91a7834c1ba4fdd244a5e8aa4e537bd38aeae4b073aa90602090a180f35b606490602084519162461bcd60e51b8352820152601460248201527314185d5cd8589b194e881b9bdd081c185d5cd95960621b6044820152fd5b5091903461036b578260031936011261036b5761123a611b56565b90336001600160a01b0383160361125657906102399135611fb1565b608490602085519162461bcd60e51b8352820152602f60248201527f416363657373436f6e74726f6c3a2063616e206f6e6c792072656e6f756e636560448201526e103937b632b9903337b91039b2b63360891b6064820152fd5b5082903461036b57606036600319011261036b57823560243590600080516020612bb483398151915284526002602052828420336000526020526112fb60ff846000205416612084565b60ff60055416600281101561137e57610239949550158081159182611365575b61132490612797565b9061134c575b61133390612797565b8452600d60205281842090845260443591842090612989565b50816007541415801561132a575060085482141561132a565b50826007541415801561131b575060085483141561131b565b634e487b7160e01b855260218652602485fd5b50903461023c578160031936011261023c5735906113ad611b56565b9082845260026020526113c560018286200154611c53565b82845260026020528084209160018060a01b0316918260005260205260ff816000205416156113f2578380f35b828452600260205280842082600052602052600020600160ff1982541617905533917f2f8788117e7eff1d82e926ec794901d17c78024a50270940304540a733656f0d8480a43880808380f35b50903461023c57602036600319011261023c5781602093600192358152600285522001549051908152f35b50903461023c5761147a36611b40565b91909260ff60055416600281101561183e57158015611825575b61149d90612797565b6114a56128cf565b6114ad6120db565b8385526020906003825260018060a01b03936114cf85838920541615156127f6565b80156117cb578587526003835284828820541695600d8452816001848a20015410611779576114fe828261273c565b91670de0b6b3a7640000611514600a5485612027565b049784516370a0823160e01b815233888201528681602481855afa90811561176f579083918c9161173a575b50106117015789813b15610267578551632770a7eb60e21b815233818a01908152602081018590529092839182908490829060400103925af180156116f7576116b2575b50886116418982957f25d9a2ad0d37c8d512a28ff4d1d12a6638e76f6ec0bfb9fc38a36c99fd717cee6101208a8a89889a99899a8a52600d84526001838b20016115cf82825461211f565b9055818a52600d8452828a206115e688825461211f565b90556115f487600c5461211f565b600c55818a52600d8452828a2091600183015492549380519542875233908701528501526000606085015260808401528560a08401528660c084015260e0830152610100820152a161211f565b335af161164c612853565b5015611671578561166a818080808a8a600954165af1610665612853565b6001815580f35b5162461bcd60e51b815291820152601e60248201527f556e61626c6520746f2073656e642066756e647320746f2073656c6c65720000604482015260649150fd5b906116418987957f25d9a2ad0d37c8d512a28ff4d1d12a6638e76f6ec0bfb9fc38a36c99fd717cee6101209d6116e98a9897611b9e565b9d5050955050509091611584565b85513d8c823e3d90fd5b845162461bcd60e51b81528088018790526013602482015272496e73756666696369656e742073686172657360681b6044820152606490fd5b809250888092503d8311611768575b6117538183611bce565b810103126117645782905138611540565b8a80fd5b503d611749565b86513d8d823e3d90fd5b50505162461bcd60e51b815291820152602660248201527f43616e6e6f742073656c6c206d6f726520736861726573207468616e20617661604482015265696c61626c6560d01b606482015260849150fd5b505162461bcd60e51b815291820152602f60248201527f416d6f756e74206f662073686172657320746f2073656c6c206d75737420626560448201526e02067726561746572207468616e203608c1b606482015260849150fd5b5083600754141580156114945750600854841415611494565b634e487b7160e01b865260218352602486fd5b503461023c576020806003193601126106d9578235917f68e9e1a1a294fefbfbf8f57edd22025faa9a9f634abfb07c3da4e23117d53b61855260028252808520338652825260ff81862054168015611a8d575b6118ad90612925565b60ff6005541660028110156107b557600103611a5557600754808414808015611a4a575b15611a16576060928488959386936000146119eb57506101607fcd30e60048b6669b6b3c9ef51427f657a617e66b522d008ad359b898bb7ad7ad916008545b808652600d82528486208a87528587209a670de0b6b3a76400006119388354600b5490612027565b049b6119458d8285612989565b8d549c8d9460075493600854600185549501549560018854980154988d519a428c528b01528c8a01528e890152608088015260a087015260c086015260e0850152610100840152610120830152610140820152a1818151936119a685611b6c565b818552840152820152015260ff196005541660055582600655826007558260085560001981146119d857600101905580f35b634e487b7160e01b835260118252602483fd5b7fcd30e60048b6669b6b3c9ef51427f657a617e66b522d008ad359b898bb7ad7ad9161016091611910565b825162461bcd60e51b8152808701859052600e60248201526d24b73b30b634b2103bb4b73732b960911b6044820152606490fd5b5060085485146118d1565b5162461bcd60e51b8152928301525060146024820152734e6f206d6174636820696e2070726f677265737360601b6044820152606490fd5b50600080516020612bb483398151915285526002825280852033865282528085205460ff166118a4565b83823461036b57602090610260611ad061048136611b40565b670de0b6b3a7640000611ae5600a5483612027565b0490612050565b8490843461023c57602036600319011261023c573563ffffffff60e01b811680910361023c5760209250637965db0b60e01b8114908115611b2f575b5015158152f35b6301ffc9a760e01b14905083611b28565b60409060031901126108f9576004359060243590565b602435906001600160a01b03821682036108f957565b6080810190811067ffffffffffffffff821117611b8857604052565b634e487b7160e01b600052604160045260246000fd5b67ffffffffffffffff8111611b8857604052565b60a0810190811067ffffffffffffffff821117611b8857604052565b90601f8019910116810190811067ffffffffffffffff821117611b8857604052565b67ffffffffffffffff8111611b8857601f01601f191660200190565b81601f820112156108f957803590611c2382611bf0565b92611c316040519485611bce565b828452602083830101116108f957816000926020809301838601378301015290565b60009080825260209060028252604092838120338252835260ff848220541615611c7d5750505050565b338451926060840184811067ffffffffffffffff821117611f55578652602a84528484019086368337845115611f415760308253845192600193841015611f2d576078602187015360295b848111611ec35750611e8157865192611ce084611b6c565b60428452868401946060368737845115611e6d57603086538451821015611e6d5790607860218601536041915b818311611dff57505050611dbd57611db9938693611d9d93611d8e604894611d659a519a8b957f416363657373436f6e74726f6c3a206163636f756e74200000000000000000008c8801525180926037880190611f69565b8401917001034b99036b4b9b9b4b733903937b6329607d1b603784015251809386840190611f69565b01036028810187520185611bce565b5192839262461bcd60e51b845260048401526024830190611f8c565b0390fd5b60648587519062461bcd60e51b825280600483015260248201527f537472696e67733a20686578206c656e67746820696e73756666696369656e746044820152fd5b909192600f81166010811015611e59576f181899199a1a9b1b9c1cb0b131b232b360811b901a611e2f858861205d565b5360041c928015611e4557600019019190611d0d565b634e487b7160e01b82526011600452602482fd5b634e487b7160e01b83526032600452602483fd5b634e487b7160e01b81526032600452602490fd5b60648688519062461bcd60e51b825280600483015260248201527f537472696e67733a20686578206c656e67746820696e73756666696369656e746044820152fd5b90600f81166010811015611f19576f181899199a1a9b1b9c1cb0b131b232b360811b901a611ef1838961205d565b5360041c908015611f055760001901611cc8565b634e487b7160e01b86526011600452602486fd5b634e487b7160e01b87526032600452602487fd5b634e487b7160e01b85526032600452602485fd5b634e487b7160e01b84526032600452602484fd5b634e487b7160e01b84526041600452602484fd5b60005b838110611f7c5750506000910152565b8181015183820152602001611f6c565b90602091611fa581518092818552858086019101611f69565b601f01601f1916010190565b906000918083526002602052604083209160018060a01b03169182845260205260ff604084205416611fe257505050565b8083526002602052604083208284526020526040832060ff1981541690557ff6391f5c32d9c69d2a47ea670b442974b53935d1edc7fd64eb21e047a839171b339380a4565b8181029291811591840414171561203a57565b634e487b7160e01b600052601160045260246000fd5b9190820180921161203a57565b90815181101561206e570160200190565b634e487b7160e01b600052603260045260246000fd5b1561208b57565b60405162461bcd60e51b815260206004820152602260248201527f4f6e6c792061646d696e732063616e2063616c6c20746869732066756e63746960448201526137b760f11b6064820152608490fd5b60ff600154166120e757565b60405162461bcd60e51b815260206004820152601060248201526f14185d5cd8589b194e881c185d5cd95960821b6044820152606490fd5b9190820391821161203a57565b92919091821515806122ce575b806122c5575b1561227457600093670de0b6b3a76400009081810291811591830414811715611f055760011982116122245761221d576121e2948382101561220b5761218e612188838661211f565b806123d6565b9084156121ee576121b76121c893926121bc6121b76121b16121c29599806123d6565b88612050565b61246c565b95612050565b90612050565b9150808210156121e557906121dc9161211f565b906123d6565b90565b6121dc9161211f565b936121b76121c893926121bc6121b76121b16121c2958a03612188565b61218e612218858461211f565b612188565b5050505090565b60405162461bcd60e51b815260206004820152602260248201527f64656c746158207363616c696e6720657863656564732075696e74323536206d6044820152610c2f60f31b6064820152608490fd5b60405162461bcd60e51b815260206004820152602360248201527f506172616d657465727320612c20622c2063206d75737420626520706f73697460448201526269766560e81b6064820152608490fd5b5080151561213f565b50811515612139565b9093919293831515806123ad575b806123a4575b15612274576122fa8183612050565b50670de0b6b3a7640000908183029280840483149015171561203a578181029181159183041481171561203a5760011982116122245761239a576121c26121b76121e2966121bc6121b76121b18761236b6123588961237e9b612050565b868082101561239157906121889161211f565b948082101561239157906121889161211f565b90808210156121e557906121dc9161211f565b6122189161211f565b5050505050600090565b508215156122eb565b508415156122e5565b81156123c0570490565b634e487b7160e01b600052601260045260246000fd5b9091906000198382098382029182808310920391808303921461245b57670de0b6b3a7640000908183101561243d57947faccb18165bd6fe31ae1cf318dc5b51eee0e1ba569b88cd74c1773b91fac1066994950990828211900360ee1b910360121c170290565b6044908660405191635173648d60e01b835260048301526024820152fd5b5050670de0b6b3a764000090049150565b7812725dd1d243aba0e75fe645cc4873f9e65afe688c928e1f21811161249f57670de0b6b3a76400006121e291026124b7565b6024906040519063edc236ad60e01b82526004820152fd5b9081156125e757816001600160801b8210156125d6575b600482600160401b6125809410156125c9575b6401000000008110156125bc575b620100008110156125af575b6101008110156125a3575b6010811015612597575b101561258f575b61252181856123b6565b0160011c61252f81856123b6565b0160011c61253d81856123b6565b0160011c61254b81856123b6565b0160011c61255981856123b6565b0160011c61256781856123b6565b0160011c61257581856123b6565b0160011c80936123b6565b8083101561258b5750565b9150565b60011b612517565b811c9160021b91612510565b60081c91811b91612506565b60101c9160081b916124fb565b60201c9160101b916124ef565b60401c9160201b916124e1565b5050608082901c600160401b6124ce565b60009150565b80600052600d60205261261960406000206001810154906002810154600460038301549201549261212c565b8015612636576121e291600052600d602052604060002054612644565b5050670de0b6b3a764000090565b670de0b6b3a76400009160001983830992808302928380861095039480860395146126e757828510156126c457908291096001821901821680920460028082600302188083028203028083028203028083028203028083028203028083028203028092029003029360018380600003040190848311900302920304170290565b8260649260405192630c740aef60e31b8452600484015260248301526044820152fd5b5050906121e292506123b6565b6127389061093e670de0b6b3a76400009361270e836125ed565b92600052600d602052604060002060018101549160028201549060046003840154930154936122d7565b0490565b670de0b6b3a76400009161093e61273892612756816125ed565b9281600052600d6020526127728160016040600020015461211f565b91600052600d60205260406000209060028201549060046003840154930154936122d7565b1561279e57565b60405162461bcd60e51b815260206004820152602a60248201527f43616e6e6f74207472616465207768696c6520636861726163746572206973206044820152690d2dc40c240dac2e8c6d60b31b6064820152608490fd5b156127fd57565b60405162461bcd60e51b815260206004820152602860248201527f455243323020746f6b656e20666f722063686172616374657220646f6573206e6044820152671bdd08195e1a5cdd60c21b6064820152608490fd5b3d1561287e573d9061286482611bf0565b916128726040519384611bce565b82523d6000602084013e565b606090565b1561288a57565b60405162461bcd60e51b815260206004820152601b60248201527f556e61626c6520746f2073656e642070726f746f636f6c2066656500000000006044820152606490fd5b6002600054146128e0576002600055565b60405162461bcd60e51b815260206004820152601f60248201527f5265656e7472616e637947756172643a207265656e7472616e742063616c6c006044820152606490fd5b1561292c57565b60405162461bcd60e51b815260206004820152602f60248201527f4f6e6c792075706b656570657273206f722061646d696e732063616e2063616c60448201526e36103a3434b990333ab731ba34b7b760891b6064820152608490fd5b90918015612b485781549182151580612b3e575b15612aed576129e860806040516129b381611bb2565b85815260018401548060208301526002850154908160408401526003860154928360608201526004870154948591015261212c565b600090670de0b6b3a76400009081810190818111612ad957670de0b6b3a763ffff01908111612ac5570480851115612abf57612a2591508461211f565b8211612a4557612a3882612a419461211f565b90558254612050565b9055565b60405162461bcd60e51b815260206004820152604660248201527f416d6f756e74206f66206d61726b65742063617020746f207472616e7366657260448201527f2069732067726561746572207468616e20746865206d6178696d756d20616c6c6064820152656f7761626c6560d01b608482015260a490fd5b50612a25565b634e487b7160e01b83526011600452602483fd5b634e487b7160e01b84526011600452602484fd5b60405162461bcd60e51b815260206004820152602360248201527f43686172616374657273206d7573742068617665206e6f6e2d7a65726f2076616044820152626c756560e81b6064820152608490fd5b508354151561299d565b60405162461bcd60e51b815260206004820152603760248201527f416d6f756e74206f66206d61726b65742063617020746f207472616e7366657260448201527f206d7573742062652067726561746572207468616e20300000000000000000006064820152608490fdfea49807205ce4d355092ef5a8a18f56e8913cf4a201fbe287825b095693c21775a264697066735822122004d8ee6dca3ab0a5ecc08a89660a79e6103f060dfcd674f34faf6e85d0b969f564736f6c634300081500332f8788117e7eff1d82e926ec794901d17c78024a50270940304540a733656f0d","linkReferences":{}},"methodIdentifiers":{"ADMIN_ROLE()":"75b238fc","DEFAULT_ADMIN_ROLE()":"a217fddf","UPKEEPER_ROLE()":"d820c67e","buyShares(uint256,uint256)":"beebc5da","characterSharesBalance(uint256,address)":"930d2d17","characterTokens(uint256)":"4a22b3f2","characters(uint256)":"4810bc59","createToken(uint256,string,string,uint256,uint256,uint256)":"67167278","depositMarketCap(uint256)":"5f8a7a4e","endMatch(uint256)":"0eaa8532","erc20Template()":"61e86599","getBuyPrice(uint256,uint256)":"c157253d","getBuyPriceAfterFee(uint256,uint256)":"063a741f","getCurve(uint256,uint256,uint256,uint256,uint256)":"85ec65e5","getPrice(uint256,uint256,uint256,uint256,uint256,uint256)":"989f039a","getRoleAdmin(bytes32)":"248a9ca3","getScalingFactor(uint256)":"e5789877","getSellPrice(uint256,uint256)":"9477d85d","getSellPriceAfterFee(uint256,uint256)":"cd9c7121","grantRole(bytes32,address)":"2f2ff15d","hasRole(bytes32,address)":"91d14854","matchCount()":"79c4264b","pause()":"8456cb59","paused()":"5c975abb","protocolFeeDestination()":"4ce7957c","protocolFeePercent()":"d6e6eb9f","removeRole(bytes32,address)":"f6ba0007","renounceRole(bytes32,address)":"36568abe","revokeRole(bytes32,address)":"d547741f","rewardPercent()":"d0302051","sellShares(uint256,uint256)":"2279a970","setProtocolFeeDestination(address)":"a10786b0","setProtocolFeePercent(uint256)":"a4983421","setRewardPercent(uint256)":"c1c5dd27","setRole(bytes32,address)":"dff87203","startMatch(uint256,uint256)":"594799c2","supportsInterface(bytes4)":"01ffc9a7","totalValueDeposited()":"86eb5133","transferMarketCap(uint256,uint256,uint256)":"32cfbd98","unpause()":"3f4ba83a","worldState()":"bdfd55bf"},"storageLayout":{"storage":[{"astId":40890,"contract":"src/World.sol:World","label":"_status","offset":0,"slot":"0","type":"t_uint256"},{"astId":40789,"contract":"src/World.sol:World","label":"_paused","offset":0,"slot":"1","type":"t_bool"},{"astId":40214,"contract":"src/World.sol:World","label":"_roles","offset":0,"slot":"2","type":"t_mapping(t_bytes32,t_struct(RoleData)40209_storage)"},{"astId":54807,"contract":"src/World.sol:World","label":"characterTokens","offset":0,"slot":"3","type":"t_mapping(t_uint256,t_address)"},{"astId":54810,"contract":"src/World.sol:World","label":"matchCount","offset":0,"slot":"4","type":"t_uint256"},{"astId":54813,"contract":"src/World.sol:World","label":"worldState","offset":0,"slot":"5","type":"t_struct(State)54696_storage"},{"astId":54815,"contract":"src/World.sol:World","label":"protocolFeeDestination","offset":0,"slot":"9","type":"t_address"},{"astId":54818,"contract":"src/World.sol:World","label":"protocolFeePercent","offset":0,"slot":"10","type":"t_uint256"},{"astId":54821,"contract":"src/World.sol:World","label":"rewardPercent","offset":0,"slot":"11","type":"t_uint256"},{"astId":54823,"contract":"src/World.sol:World","label":"totalValueDeposited","offset":0,"slot":"12","type":"t_uint256"},{"astId":54828,"contract":"src/World.sol:World","label":"characters","offset":0,"slot":"13","type":"t_mapping(t_uint256,t_struct(Character)54707_storage)"}],"types":{"t_address":{"encoding":"inplace","label":"address","numberOfBytes":"20"},"t_bool":{"encoding":"inplace","label":"bool","numberOfBytes":"1"},"t_bytes32":{"encoding":"inplace","label":"bytes32","numberOfBytes":"32"},"t_enum(Status)54686":{"encoding":"inplace","label":"enum World.Status","numberOfBytes":"1"},"t_mapping(t_address,t_bool)":{"encoding":"mapping","key":"t_address","label":"mapping(address => bool)","numberOfBytes":"32","value":"t_bool"},"t_mapping(t_bytes32,t_struct(RoleData)40209_storage)":{"encoding":"mapping","key":"t_bytes32","label":"mapping(bytes32 => struct AccessControl.RoleData)","numberOfBytes":"32","value":"t_struct(RoleData)40209_storage"},"t_mapping(t_uint256,t_address)":{"encoding":"mapping","key":"t_uint256","label":"mapping(uint256 => address)","numberOfBytes":"32","value":"t_address"},"t_mapping(t_uint256,t_struct(Character)54707_storage)":{"encoding":"mapping","key":"t_uint256","label":"mapping(uint256 => struct World.Character)","numberOfBytes":"32","value":"t_struct(Character)54707_storage"},"t_struct(Character)54707_storage":{"encoding":"inplace","label":"struct World.Character","numberOfBytes":"160","members":[{"astId":54698,"contract":"src/World.sol:World","label":"value","offset":0,"slot":"0","type":"t_uint256"},{"astId":54700,"contract":"src/World.sol:World","label":"supply","offset":0,"slot":"1","type":"t_uint256"},{"astId":54702,"contract":"src/World.sol:World","label":"a","offset":0,"slot":"2","type":"t_uint256"},{"astId":54704,"contract":"src/World.sol:World","label":"b","offset":0,"slot":"3","type":"t_uint256"},{"astId":54706,"contract":"src/World.sol:World","label":"c","offset":0,"slot":"4","type":"t_uint256"}]},"t_struct(RoleData)40209_storage":{"encoding":"inplace","label":"struct AccessControl.RoleData","numberOfBytes":"64","members":[{"astId":40206,"contract":"src/World.sol:World","label":"members","offset":0,"slot":"0","type":"t_mapping(t_address,t_bool)"},{"astId":40208,"contract":"src/World.sol:World","label":"adminRole","offset":0,"slot":"1","type":"t_bytes32"}]},"t_struct(State)54696_storage":{"encoding":"inplace","label":"struct World.State","numberOfBytes":"128","members":[{"astId":54689,"contract":"src/World.sol:World","label":"status","offset":0,"slot":"0","type":"t_enum(Status)54686"},{"astId":54691,"contract":"src/World.sol:World","label":"id","offset":0,"slot":"1","type":"t_uint256"},{"astId":54693,"contract":"src/World.sol:World","label":"p1","offset":0,"slot":"2","type":"t_uint256"},{"astId":54695,"contract":"src/World.sol:World","label":"p2","offset":0,"slot":"3","type":"t_uint256"}]},"t_uint256":{"encoding":"inplace","label":"uint256","numberOfBytes":"32"}}},"id":67}