{"abi":[{"type":"constructor","inputs":[],"stateMutability":"nonpayable"},{"type":"function","name":"buyShares","inputs":[{"name":"character","type":"uint256","internalType":"uint256"},{"name":"amount","type":"uint256","internalType":"uint256"}],"outputs":[],"stateMutability":"payable"},{"type":"function","name":"characterSharesBalance","inputs":[{"name":"","type":"uint256","internalType":"uint256"},{"name":"","type":"address","internalType":"address"}],"outputs":[{"name":"","type":"uint256","internalType":"uint256"}],"stateMutability":"view"},{"type":"function","name":"characterStakeUnlockTime","inputs":[{"name":"","type":"uint256","internalType":"uint256"},{"name":"","type":"address","internalType":"address"}],"outputs":[{"name":"","type":"uint256","internalType":"uint256"}],"stateMutability":"view"},{"type":"function","name":"characterStakes","inputs":[{"name":"","type":"uint256","internalType":"uint256"},{"name":"","type":"address","internalType":"address"},{"name":"","type":"uint256","internalType":"uint256"}],"outputs":[{"name":"","type":"uint256","internalType":"uint256"}],"stateMutability":"view"},{"type":"function","name":"characters","inputs":[{"name":"","type":"uint256","internalType":"uint256"}],"outputs":[{"name":"value","type":"uint256","internalType":"uint256"},{"name":"supply","type":"uint256","internalType":"uint256"}],"stateMutability":"view"},{"type":"function","name":"deductionFee","inputs":[],"outputs":[{"name":"","type":"uint256","internalType":"uint256"}],"stateMutability":"view"},{"type":"function","name":"endMatch","inputs":[{"name":"winner","type":"uint256","internalType":"uint256"}],"outputs":[],"stateMutability":"nonpayable"},{"type":"function","name":"getBuyPrice","inputs":[{"name":"character","type":"uint256","internalType":"uint256"},{"name":"amount","type":"uint256","internalType":"uint256"}],"outputs":[{"name":"","type":"uint256","internalType":"uint256"}],"stateMutability":"view"},{"type":"function","name":"getBuyPriceAfterFee","inputs":[{"name":"character","type":"uint256","internalType":"uint256"},{"name":"amount","type":"uint256","internalType":"uint256"}],"outputs":[{"name":"","type":"uint256","internalType":"uint256"}],"stateMutability":"view"},{"type":"function","name":"getCurve","inputs":[{"name":"supply","type":"uint256","internalType":"uint256"},{"name":"amount","type":"uint256","internalType":"uint256"}],"outputs":[{"name":"","type":"uint256","internalType":"uint256"}],"stateMutability":"pure"},{"type":"function","name":"getPrice","inputs":[{"name":"supply","type":"uint256","internalType":"uint256"},{"name":"amount","type":"uint256","internalType":"uint256"},{"name":"scalingFactor","type":"uint256","internalType":"uint256"}],"outputs":[{"name":"","type":"uint256","internalType":"uint256"}],"stateMutability":"pure"},{"type":"function","name":"getScalingFactor","inputs":[{"name":"character","type":"uint256","internalType":"uint256"}],"outputs":[{"name":"","type":"uint256","internalType":"uint256"}],"stateMutability":"view"},{"type":"function","name":"getSellPrice","inputs":[{"name":"character","type":"uint256","internalType":"uint256"},{"name":"amount","type":"uint256","internalType":"uint256"}],"outputs":[{"name":"","type":"uint256","internalType":"uint256"}],"stateMutability":"view"},{"type":"function","name":"getSellPriceAfterFee","inputs":[{"name":"character","type":"uint256","internalType":"uint256"},{"name":"amount","type":"uint256","internalType":"uint256"}],"outputs":[{"name":"","type":"uint256","internalType":"uint256"}],"stateMutability":"view"},{"type":"function","name":"getStakedAmount","inputs":[{"name":"character","type":"uint256","internalType":"uint256"},{"name":"staker","type":"address","internalType":"address"},{"name":"attribute","type":"uint256","internalType":"uint256"}],"outputs":[{"name":"","type":"uint256","internalType":"uint256"}],"stateMutability":"view"},{"type":"function","name":"lockupPeriod","inputs":[],"outputs":[{"name":"","type":"uint256","internalType":"uint256"}],"stateMutability":"view"},{"type":"function","name":"owner","inputs":[],"outputs":[{"name":"","type":"address","internalType":"address"}],"stateMutability":"view"},{"type":"function","name":"protocolFeeDestination","inputs":[],"outputs":[{"name":"","type":"address","internalType":"address"}],"stateMutability":"view"},{"type":"function","name":"protocolFeePercent","inputs":[],"outputs":[{"name":"","type":"uint256","internalType":"uint256"}],"stateMutability":"view"},{"type":"function","name":"renounceOwnership","inputs":[],"outputs":[],"stateMutability":"nonpayable"},{"type":"function","name":"sellShares","inputs":[{"name":"character","type":"uint256","internalType":"uint256"},{"name":"amount","type":"uint256","internalType":"uint256"}],"outputs":[],"stateMutability":"payable"},{"type":"function","name":"stake","inputs":[{"name":"character","type":"uint256","internalType":"uint256"},{"name":"attribute","type":"uint256","internalType":"uint256"},{"name":"amount","type":"uint256","internalType":"uint256"}],"outputs":[],"stateMutability":"nonpayable"},{"type":"function","name":"startMatch","inputs":[{"name":"player1","type":"uint256","internalType":"uint256"},{"name":"player2","type":"uint256","internalType":"uint256"}],"outputs":[],"stateMutability":"nonpayable"},{"type":"function","name":"totalValueDeposited","inputs":[],"outputs":[{"name":"","type":"uint256","internalType":"uint256"}],"stateMutability":"view"},{"type":"function","name":"transferOwnership","inputs":[{"name":"newOwner","type":"address","internalType":"address"}],"outputs":[],"stateMutability":"nonpayable"},{"type":"function","name":"unstake","inputs":[{"name":"character","type":"uint256","internalType":"uint256"},{"name":"attribute","type":"uint256","internalType":"uint256"},{"name":"amount","type":"uint256","internalType":"uint256"}],"outputs":[],"stateMutability":"nonpayable"},{"type":"function","name":"worldState","inputs":[],"outputs":[{"name":"status","type":"uint8","internalType":"enum World.Status"},{"name":"p1","type":"uint256","internalType":"uint256"},{"name":"p2","type":"uint256","internalType":"uint256"}],"stateMutability":"view"},{"type":"event","name":"BattleEnded","inputs":[{"name":"timestamp","type":"uint256","indexed":false,"internalType":"uint256"},{"name":"winner","type":"uint256","indexed":false,"internalType":"uint256"},{"name":"loser","type":"uint256","indexed":false,"internalType":"uint256"},{"name":"reward","type":"uint256","indexed":false,"internalType":"uint256"},{"name":"value","type":"uint256","indexed":false,"internalType":"uint256"},{"name":"supply","type":"uint256","indexed":false,"internalType":"uint256"}],"anonymous":false},{"type":"event","name":"BattleStarted","inputs":[{"name":"timestamp","type":"uint256","indexed":false,"internalType":"uint256"},{"name":"startTime","type":"uint256","indexed":false,"internalType":"uint256"},{"name":"endTime","type":"uint256","indexed":false,"internalType":"uint256"},{"name":"p1","type":"uint256","indexed":false,"internalType":"uint256"},{"name":"p2","type":"uint256","indexed":false,"internalType":"uint256"}],"anonymous":false},{"type":"event","name":"OwnershipTransferred","inputs":[{"name":"previousOwner","type":"address","indexed":true,"internalType":"address"},{"name":"newOwner","type":"address","indexed":true,"internalType":"address"}],"anonymous":false},{"type":"event","name":"Stake","inputs":[{"name":"timestamp","type":"uint256","indexed":false,"internalType":"uint256"},{"name":"staker","type":"address","indexed":false,"internalType":"address"},{"name":"character","type":"uint256","indexed":false,"internalType":"uint256"},{"name":"shareAmount","type":"uint256","indexed":false,"internalType":"uint256"},{"name":"ethAmount","type":"uint256","indexed":false,"internalType":"uint256"},{"name":"supply","type":"uint256","indexed":false,"internalType":"uint256"},{"name":"value","type":"uint256","indexed":false,"internalType":"uint256"},{"name":"unlockTime","type":"uint256","indexed":false,"internalType":"uint256"}],"anonymous":false},{"type":"event","name":"Trade","inputs":[{"name":"timestamp","type":"uint256","indexed":false,"internalType":"uint256"},{"name":"trader","type":"address","indexed":false,"internalType":"address"},{"name":"character","type":"uint256","indexed":false,"internalType":"uint256"},{"name":"isBuy","type":"bool","indexed":false,"internalType":"bool"},{"name":"shareAmount","type":"uint256","indexed":false,"internalType":"uint256"},{"name":"ethAmount","type":"uint256","indexed":false,"internalType":"uint256"},{"name":"protocolEthAmount","type":"uint256","indexed":false,"internalType":"uint256"},{"name":"supply","type":"uint256","indexed":false,"internalType":"uint256"},{"name":"value","type":"uint256","indexed":false,"internalType":"uint256"}],"anonymous":false},{"type":"event","name":"Unstake","inputs":[{"name":"timestamp","type":"uint256","indexed":false,"internalType":"uint256"},{"name":"staker","type":"address","indexed":false,"internalType":"address"},{"name":"character","type":"uint256","indexed":false,"internalType":"uint256"},{"name":"shareAmount","type":"uint256","indexed":false,"internalType":"uint256"},{"name":"ethAmount","type":"uint256","indexed":false,"internalType":"uint256"},{"name":"supply","type":"uint256","indexed":false,"internalType":"uint256"},{"name":"value","type":"uint256","indexed":false,"internalType":"uint256"}],"anonymous":false}],"bytecode":{"object":"0x608060405234801561001057600080fd5b5061001a3361003b565b600480546001600160a01b031916331790556001805460ff1916905561008b565b600080546001600160a01b038381166001600160a01b0319831681178455604051919092169283917f8be0079c531659141344cd1fd0a4f28419497f9722a3daafe3b4186f6b6457e09190a35050565b611fa38061009a6000396000f3fe60806040526004361061019c5760003560e01c8063930d2d17116100ec578063beebc5da1161008a578063d6e6eb9f11610064578063d6e6eb9f1461052b578063e578987714610546578063ee947a7c14610566578063f2fde38b1461057d57600080fd5b8063beebc5da146104d8578063c157253d146104eb578063cd9c71211461050b57600080fd5b806399edbc2c116100c657806399edbc2c14610447578063a638f2e214610467578063bd97b37514610487578063bdfd55bf146104a757600080fd5b8063930d2d17146103b75780639477d85d146103ef57806397d446e51461040f57600080fd5b80634ce7957c11610159578063715018a611610133578063715018a614610352578063812c2bec1461036757806386eb5133146103835780638da5cb5b1461039957600080fd5b80634ce7957c146102bc57806357d909fb146102f4578063594799c21461033257600080fd5b8063063a741f146101a15780630eaa8532146101d45780630f64fb0d146101f65780632279a970146102405780633cc4ecab146102535780634810bc5914610273575b600080fd5b3480156101ad57600080fd5b506101c16101bc366004611bc4565b61059d565b6040519081526020015b60405180910390f35b3480156101e057600080fd5b506101f46101ef366004611be6565b6105e9565b005b34801561020257600080fd5b506101c1610211366004611c1b565b60009283526008602090815260408085206001600160a01b039490941685529281528284209184525290205490565b6101f461024e366004611bc4565b610971565b34801561025f57600080fd5b506101c161026e366004611c50565b610e25565b34801561027f57600080fd5b506102a761028e366004611be6565b6006602052600090815260409020805460019091015482565b604080519283526020830191909152016101cb565b3480156102c857600080fd5b506004546102dc906001600160a01b031681565b6040516001600160a01b0390911681526020016101cb565b34801561030057600080fd5b506101c161030f366004611c1b565b600860209081526000938452604080852082529284528284209052825290205481565b34801561033e57600080fd5b506101f461034d366004611bc4565b610e5a565b34801561035e57600080fd5b506101f4611038565b34801561037357600080fd5b506101c167016345785d8a000081565b34801561038f57600080fd5b506101c160055481565b3480156103a557600080fd5b506000546001600160a01b03166102dc565b3480156103c357600080fd5b506101c16103d2366004611c7c565b600760209081526000928352604080842090915290825290205481565b3480156103fb57600080fd5b506101c161040a366004611bc4565b61104c565b34801561041b57600080fd5b506101c161042a366004611c7c565b600960209081526000928352604080842090915290825290205481565b34801561045357600080fd5b506101c1610462366004611bc4565b611084565b34801561047357600080fd5b506101f4610482366004611c50565b61111b565b34801561049357600080fd5b506101f46104a2366004611c50565b6113b6565b3480156104b357600080fd5b506001546002546003546104c99260ff16919083565b6040516101cb93929190611cbe565b6101f46104e6366004611bc4565b611615565b3480156104f757600080fd5b506101c1610506366004611bc4565b6118ae565b34801561051757600080fd5b506101c1610526366004611bc4565b6118db565b34801561053757600080fd5b506101c166470de4df82000081565b34801561055257600080fd5b506101c1610561366004611be6565b61191c565b34801561057257600080fd5b506101c16201518081565b34801561058957600080fd5b506101f4610598366004611cf4565b6119f4565b6000806105aa84846118ae565b90506000670de0b6b3a76400006105c866470de4df82000084611d2c565b6105d29190611d43565b90506105de8183611d65565b925050505b92915050565b6105f1611a6d565b6001805460ff168181111561060857610608611ca8565b146106515760405162461bcd60e51b81526020600482015260146024820152734e6f206d6174636820696e2070726f677265737360601b60448201526064015b60405180910390fd5b600254811480610662575060035481145b61069f5760405162461bcd60e51b815260206004820152600e60248201526d24b73b30b634b2103bb4b73732b960911b6044820152606401610648565b60025460009082146106b3576002546106b7565b6003545b600081815260066020818152604080842081518083018352815481526001918201548185015288865293835281852082518084019093528054835281015492820192909252815460ff19169091556002839055600383905581519394509092909190670de0b6b3a7640000906107369067016345785d8a000090611d2c565b6107409190611d43565b905061077c604051806040016040528060148152602001733637b9b2b91034b734ba34b0b6103b30b63ab29d60611b8152508460000151611ac7565b6107b7604051806040016040528060158152602001743637b9b2b91034b734ba34b0b61039bab838363c9d60591b8152508460200151611ac7565b6107f2604051806040016040528060158152602001743bb4b73732b91034b734ba34b0b6103b30b63ab29d60591b8152508360000151611ac7565b61082e604051806040016040528060168152602001753bb4b73732b91034b734ba34b0b61039bab838363c9d60511b8152508360200151611ac7565b6000848152600660205260408120805483929061084c908490611d78565b90915550506000858152600660205260408120805483929061086f908490611d65565b909155505081516020808401516040805142815292830189905282810188905260608301859052608083019390935260a082015290517f57bbcc739767fe28cb2478881217f115150fa0e36a92200b4802fe21eed2b50a9181900360c00190a16109036040518060400160405280601281526020017132b73226b0ba31b41016903bb4b73732b91d60711b81525086611ac7565b6109366040518060400160405280601181526020017032b73226b0ba31b41016903637b9b2b91d60791b81525085611ac7565b61096a6040518060400160405280601281526020017132b73226b0ba31b41016903932bbb0b9321d60711b81525082611ac7565b5050505050565b60006001805460ff169081111561098a5761098a611ca8565b146109a75760405162461bcd60e51b815260040161064890611d8b565b600082815260066020526040902060010154818111610a085760405162461bcd60e51b815260206004820152601a60248201527f43616e6e6f742073656c6c20746865206c6173742073686172650000000000006044820152606401610648565b6000610a14848461104c565b90506000670de0b6b3a7640000610a3266470de4df82000084611d2c565b610a3c9190611d43565b9050610a7d6040518060400160405280601781526020017f73656c6c536861726573202d206368617261637465723a00000000000000000081525086611ac7565b610ab36040518060400160405280601481526020017339b2b63629b430b932b990169030b6b7bab73a1d60611b81525085611ac7565b610ae86040518060400160405280601381526020017239b2b63629b430b932b9901690383934b1b29d60691b81525083611ac7565b610b276040518060400160405280601981526020017f73656c6c536861726573202d2070726f746f636f6c4665653a0000000000000081525082611ac7565b6000858152600760209081526040808320338452909152902054841115610b865760405162461bcd60e51b8152602060048201526013602482015272496e73756666696369656e742073686172657360681b6044820152606401610648565b600085815260076020908152604080832033845290915281208054869290610baf908490611d78565b909155505060008581526006602052604081206001018054869290610bd5908490611d78565b909155505060008581526006602052604081208054849290610bf8908490611d78565b925050819055508160056000828254610c119190611d78565b909155507f25d9a2ad0d37c8d512a28ff4d1d12a6638e76f6ec0bfb9fc38a36c99fd717cee90504233876000888787610c4a838c611d78565b60008e81526006602052604090819020549051610c6f99989796959493929190611dd2565b60405180910390a1610c98604051806080016040528060478152602001611e9660479139611b0c565b600033610ca58385611d78565b604051600081818185875af1925050503d8060008114610ce1576040519150601f19603f3d011682016040523d82523d6000602084013e610ce6565b606091505b5050905080610d375760405162461bcd60e51b815260206004820152601e60248201527f556e61626c6520746f2073656e642066756e647320746f2073656c6c657200006044820152606401610648565b610d58604051806060016040528060218152602001611edd60219139611b0c565b6004546040516000916001600160a01b03169084908381818185875af1925050503d8060008114610da5576040519150601f19603f3d011682016040523d82523d6000602084013e610daa565b606091505b5050905080610dfb5760405162461bcd60e51b815260206004820152601b60248201527f556e61626c6520746f2073656e642070726f746f636f6c2066656500000000006044820152606401610648565b610e1c6040518060600160405280602d8152602001611efe602d9139611b0c565b50505050505050565b600080610e328585611084565b9050670de0b6b3a7640000610e478483611d2c565b610e519190611d43565b95945050505050565b610e62611a6d565b808203610eb15760405162461bcd60e51b815260206004820152601960248201527f506c6179657273206d75737420626520646966666572656e74000000000000006044820152606401610648565b60006001805460ff1690811115610eca57610eca611ca8565b14610f175760405162461bcd60e51b815260206004820152601960248201527f4d6174636820616c726561647920696e2070726f6772657373000000000000006044820152606401610648565b600282905560038190556001805460ff1916811790557fd8170533331e0e9e2583199cf41831c5120ca1a2658184373be73d377a49cc524280610f5c81610e10611d65565b60408051938452602084019290925290820152606081018490526080810183905260a00160405180910390a1610fbf6040518060400160405280601581526020017439ba30b93a26b0ba31b4101690383630bcb2b9189d60591b81525083611ac7565b610ff66040518060400160405280601581526020017439ba30b93a26b0ba31b4101690383630bcb2b9191d60591b81525082611ac7565b6110346040518060400160405280601a81526020017f73746172744d61746368202d206d617463682073746172746564000000000000815250611b0c565b5050565b611040611a6d565b61104a6000611b4f565b565b6000806110588461191c565b600085815260066020526040812060010154919250906105de9061107d908690611d78565b8584610e25565b6000600181846110948180611d2c565b61109e9190611d2c565b905060006110ac8587611d65565b90506000816110bb8180611d2c565b6110c59190611d2c565b9050600060036110d58584611d78565b6110df9087611d2c565b6110e99190611d43565b905060006305f5e10061110483670de0b6b3a7640000611d2c565b61110e9190611d43565b9998505050505050505050565b60006001805460ff169081111561113457611134611ca8565b146111515760405162461bcd60e51b815260040161064890611d8b565b60008381526007602090815260408083203384529091529020548111156111ba5760405162461bcd60e51b815260206004820152601c60248201527f496e73756666696369656e742073686172657320746f207374616b65000000006044820152606401610648565b60008381526008602090815260408083203384528252808320858452909152812080548392906111eb908490611d65565b9091555050600083815260076020908152604080832033845290915281208054839290611219908490611d78565b9091555061122c90506201518042611d65565b600084815260096020908152604080832033808552818452828520869055888552600684528285206001810154905495829052918452825142815293840152828201889052606083018690526080830186905260a083015260c082019290925260e0810192909252517f5bcdd1be70477e533719dc3d7850d6dfb17c6af1f36486fd49b328ff5ddf1616918190036101000190a16112f46040518060400160405280601281526020017139ba30b5b290169031b430b930b1ba32b91d60711b81525084611ac7565b6113286040518060400160405280601281526020017139ba30b5b290169030ba3a3934b13aba329d60711b81525083611ac7565b6113596040518060400160405280600f81526020016e39ba30b5b290169030b6b7bab73a1d60891b81525082611ac7565b604080518082018252601881527f7374616b65202d206e657720756e6c6f636b2074696d653a000000000000000060208083019190915260008681526009825283812033825290915291909120546113b19190611ac7565b505050565b600083815260096020908152604080832033845290915290205483904210156114195760405162461bcd60e51b815260206004820152601560248201527414dd185ad9481a5cc81cdd1a5b1b081b1bd8dad959605a1b6044820152606401610648565b600084815260086020908152604080832033845282528083208684529091529020548211156114985760405162461bcd60e51b815260206004820152602560248201527f496e73756666696369656e74207374616b656420616d6f756e7420746f20756e6044820152647374616b6560d81b6064820152608401610648565b60008481526008602090815260408083203384528252808320868452909152812080548492906114c9908490611d78565b90915550506000848152600760209081526040808320338452909152812080548492906114f7908490611d65565b90915550506000848152600660209081526040918290206001810154905483514281523393810193909352928201879052606082018590526080820185905260a082015260c08101919091527fdec9b5d5119fa053a942b416b80b566b81cf985b2c1f695a5a00f5541b7aed2b9060e00160405180910390a16115a6604051806040016040528060148152602001733ab739ba30b5b290169031b430b930b1ba32b91d60611b81525085611ac7565b6115dc604051806040016040528060148152602001733ab739ba30b5b290169030ba3a3934b13aba329d60611b81525084611ac7565b61160f604051806040016040528060118152602001703ab739ba30b5b290169030b6b7bab73a1d60791b81525083611ac7565b50505050565b60006001805460ff169081111561162e5761162e611ca8565b1461164b5760405162461bcd60e51b815260040161064890611d8b565b6000828152600660205260408120600101549061166884846118ae565b90506000670de0b6b3a764000061168666470de4df82000084611d2c565b6116909190611d43565b905061169c8183611d65565b3410156116e25760405162461bcd60e51b8152602060048201526014602482015273125b9cdd59999a58da595b9d081c185e5b595b9d60621b6044820152606401610648565b60008581526007602090815260408083203384529091528120805486929061170b908490611d65565b909155505060008581526006602052604081206001018054869290611731908490611d65565b909155505060008581526006602052604081208054849290611754908490611d65565b92505081905550816005600082825461176d9190611d65565b909155507f25d9a2ad0d37c8d512a28ff4d1d12a6638e76f6ec0bfb9fc38a36c99fd717cee905042338760018887876117a6838c611d65565b60008e815260066020526040908190205490516117cb99989796959493929190611dd2565b60405180910390a16004546040516000916001600160a01b03169083908381818185875af1925050503d8060008114611820576040519150601f19603f3d011682016040523d82523d6000602084013e611825565b606091505b50509050806118765760405162461bcd60e51b815260206004820152601b60248201527f556e61626c6520746f2073656e642070726f746f636f6c2066656500000000006044820152606401610648565b6118a66040518060400160405280600e81526020016d03137bab3b43a29b430b932b99d160951b81525086611ac7565b505050505050565b6000806118ba8461191c565b600085815260066020526040812060010154919250906105de908584610e25565b6000806118e8848461104c565b90506000670de0b6b3a764000061190666470de4df82000084611d2c565b6119109190611d43565b90506105de8183611d78565b600081815260066020526040812060019081015482911061193e57600061195c565b600083815260066020526040902060019081015461195c9190611d78565b9050600061196b600183611084565b9050806000036119a757611996604051806080016040528060438152602001611f2b60439139611b0c565b50670de0b6b3a76400009392505050565b60008481526006602052604081205482906119ca90670de0b6b3a7640000611d2c565b6119d49190611d43565b905080156119e25780610e51565b670de0b6b3a764000095945050505050565b6119fc611a6d565b6001600160a01b038116611a615760405162461bcd60e51b815260206004820152602660248201527f4f776e61626c653a206e6577206f776e657220697320746865207a65726f206160448201526564647265737360d01b6064820152608401610648565b611a6a81611b4f565b50565b6000546001600160a01b0316331461104a5760405162461bcd60e51b815260206004820181905260248201527f4f776e61626c653a2063616c6c6572206973206e6f7420746865206f776e65726044820152606401610648565b6110348282604051602401611add929190611e60565b60408051601f198184030181529190526020810180516001600160e01b03166309710a9d60e41b179052611b9f565b611a6a81604051602401611b209190611e82565b60408051601f198184030181529190526020810180516001600160e01b031663104c13eb60e21b179052611b9f565b600080546001600160a01b038381166001600160a01b0319831681178455604051919092169283917f8be0079c531659141344cd1fd0a4f28419497f9722a3daafe3b4186f6b6457e09190a35050565b611a6a8180516a636f6e736f6c652e6c6f67602083016000808483855afa5050505050565b60008060408385031215611bd757600080fd5b50508035926020909101359150565b600060208284031215611bf857600080fd5b5035919050565b80356001600160a01b0381168114611c1657600080fd5b919050565b600080600060608486031215611c3057600080fd5b83359250611c4060208501611bff565b9150604084013590509250925092565b600080600060608486031215611c6557600080fd5b505081359360208301359350604090920135919050565b60008060408385031215611c8f57600080fd5b82359150611c9f60208401611bff565b90509250929050565b634e487b7160e01b600052602160045260246000fd5b6060810160028510611ce057634e487b7160e01b600052602160045260246000fd5b938152602081019290925260409091015290565b600060208284031215611d0657600080fd5b611d0f82611bff565b9392505050565b634e487b7160e01b600052601160045260246000fd5b80820281158282048414176105e3576105e3611d16565b600082611d6057634e487b7160e01b600052601260045260246000fd5b500490565b808201808211156105e3576105e3611d16565b818103818111156105e3576105e3611d16565b60208082526027908201527f43616e6e6f74207472616465207768696c65206d6174636820697320696e2070604082015266726f677265737360c81b606082015260800190565b9889526001600160a01b0397909716602089015260408801959095529215156060870152608086019190915260a085015260c084015260e08301526101008201526101200190565b6000815180845260005b81811015611e4057602081850181015186830182015201611e24565b506000602082860101526020601f19601f83011685010191505092915050565b604081526000611e736040830185611e1a565b90508260208301529392505050565b602081526000611d0f6020830184611e1a56fe73656c6c536861726573202d205570646174656420636861726163746572207368617265732062616c616e636520616e6420746f74616c2076616c7565206465706f736974656473656c6c536861726573202d2046756e64732073656e7420746f2073656c6c657273656c6c536861726573202d2050726f746f636f6c206665652073656e7420746f2064657374696e6174696f6e6765745363616c696e67466163746f72202d206f726967696e616c56616c7565206973207a65726f2c2072657475726e696e672064656661756c742031206574686572a2646970667358221220c7b4aaa5e944650fbb5b870fd142da3226828ddc310dcb01d51abd8af140666564736f6c63430008150033","linkReferences":{}},"methodIdentifiers":{"buyShares(uint256,uint256)":"beebc5da","characterSharesBalance(uint256,address)":"930d2d17","characterStakeUnlockTime(uint256,address)":"97d446e5","characterStakes(uint256,address,uint256)":"57d909fb","characters(uint256)":"4810bc59","deductionFee()":"812c2bec","endMatch(uint256)":"0eaa8532","getBuyPrice(uint256,uint256)":"c157253d","getBuyPriceAfterFee(uint256,uint256)":"063a741f","getCurve(uint256,uint256)":"99edbc2c","getPrice(uint256,uint256,uint256)":"3cc4ecab","getScalingFactor(uint256)":"e5789877","getSellPrice(uint256,uint256)":"9477d85d","getSellPriceAfterFee(uint256,uint256)":"cd9c7121","getStakedAmount(uint256,address,uint256)":"0f64fb0d","lockupPeriod()":"ee947a7c","owner()":"8da5cb5b","protocolFeeDestination()":"4ce7957c","protocolFeePercent()":"d6e6eb9f","renounceOwnership()":"715018a6","sellShares(uint256,uint256)":"2279a970","stake(uint256,uint256,uint256)":"a638f2e2","startMatch(uint256,uint256)":"594799c2","totalValueDeposited()":"86eb5133","transferOwnership(address)":"f2fde38b","unstake(uint256,uint256,uint256)":"bd97b375","worldState()":"bdfd55bf"},"storageLayout":{"storage":[{"astId":8131,"contract":"src/World.sol:World","label":"_owner","offset":0,"slot":"0","type":"t_address"},{"astId":8380,"contract":"src/World.sol:World","label":"worldState","offset":0,"slot":"1","type":"t_struct(State)8292_storage"},{"astId":8382,"contract":"src/World.sol:World","label":"protocolFeeDestination","offset":0,"slot":"4","type":"t_address"},{"astId":8384,"contract":"src/World.sol:World","label":"totalValueDeposited","offset":0,"slot":"5","type":"t_uint256"},{"astId":8389,"contract":"src/World.sol:World","label":"characters","offset":0,"slot":"6","type":"t_mapping(t_uint256,t_struct(Character)8297_storage)"},{"astId":8395,"contract":"src/World.sol:World","label":"characterSharesBalance","offset":0,"slot":"7","type":"t_mapping(t_uint256,t_mapping(t_address,t_uint256))"},{"astId":8403,"contract":"src/World.sol:World","label":"characterStakes","offset":0,"slot":"8","type":"t_mapping(t_uint256,t_mapping(t_address,t_mapping(t_uint256,t_uint256)))"},{"astId":8409,"contract":"src/World.sol:World","label":"characterStakeUnlockTime","offset":0,"slot":"9","type":"t_mapping(t_uint256,t_mapping(t_address,t_uint256))"}],"types":{"t_address":{"encoding":"inplace","label":"address","numberOfBytes":"20"},"t_enum(Status)8284":{"encoding":"inplace","label":"enum World.Status","numberOfBytes":"1"},"t_mapping(t_address,t_mapping(t_uint256,t_uint256))":{"encoding":"mapping","key":"t_address","label":"mapping(address => mapping(uint256 => uint256))","numberOfBytes":"32","value":"t_mapping(t_uint256,t_uint256)"},"t_mapping(t_address,t_uint256)":{"encoding":"mapping","key":"t_address","label":"mapping(address => uint256)","numberOfBytes":"32","value":"t_uint256"},"t_mapping(t_uint256,t_mapping(t_address,t_mapping(t_uint256,t_uint256)))":{"encoding":"mapping","key":"t_uint256","label":"mapping(uint256 => mapping(address => mapping(uint256 => uint256)))","numberOfBytes":"32","value":"t_mapping(t_address,t_mapping(t_uint256,t_uint256))"},"t_mapping(t_uint256,t_mapping(t_address,t_uint256))":{"encoding":"mapping","key":"t_uint256","label":"mapping(uint256 => mapping(address => uint256))","numberOfBytes":"32","value":"t_mapping(t_address,t_uint256)"},"t_mapping(t_uint256,t_struct(Character)8297_storage)":{"encoding":"mapping","key":"t_uint256","label":"mapping(uint256 => struct World.Character)","numberOfBytes":"32","value":"t_struct(Character)8297_storage"},"t_mapping(t_uint256,t_uint256)":{"encoding":"mapping","key":"t_uint256","label":"mapping(uint256 => uint256)","numberOfBytes":"32","value":"t_uint256"},"t_struct(Character)8297_storage":{"encoding":"inplace","label":"struct World.Character","numberOfBytes":"64","members":[{"astId":8294,"contract":"src/World.sol:World","label":"value","offset":0,"slot":"0","type":"t_uint256"},{"astId":8296,"contract":"src/World.sol:World","label":"supply","offset":0,"slot":"1","type":"t_uint256"}]},"t_struct(State)8292_storage":{"encoding":"inplace","label":"struct World.State","numberOfBytes":"96","members":[{"astId":8287,"contract":"src/World.sol:World","label":"status","offset":0,"slot":"0","type":"t_enum(Status)8284"},{"astId":8289,"contract":"src/World.sol:World","label":"p1","offset":0,"slot":"1","type":"t_uint256"},{"astId":8291,"contract":"src/World.sol:World","label":"p2","offset":0,"slot":"2","type":"t_uint256"}]},"t_uint256":{"encoding":"inplace","label":"uint256","numberOfBytes":"32"}}},"id":3}